{
  "contractName": "Community",
  "abi": [
    {
      "inputs": [],
      "stateMutability": "nonpayable",
      "type": "constructor"
    },
    {
      "anonymous": false,
      "inputs": [
        {
          "indexed": true,
          "internalType": "address",
          "name": "owner",
          "type": "address"
        },
        {
          "indexed": true,
          "internalType": "address",
          "name": "approved",
          "type": "address"
        },
        {
          "indexed": true,
          "internalType": "uint256",
          "name": "tokenId",
          "type": "uint256"
        }
      ],
      "name": "Approval",
      "type": "event"
    },
    {
      "anonymous": false,
      "inputs": [
        {
          "indexed": true,
          "internalType": "address",
          "name": "owner",
          "type": "address"
        },
        {
          "indexed": true,
          "internalType": "address",
          "name": "operator",
          "type": "address"
        },
        {
          "indexed": false,
          "internalType": "bool",
          "name": "approved",
          "type": "bool"
        }
      ],
      "name": "ApprovalForAll",
      "type": "event"
    },
    {
      "anonymous": false,
      "inputs": [
        {
          "indexed": false,
          "internalType": "uint256",
          "name": "id",
          "type": "uint256"
        },
        {
          "indexed": false,
          "internalType": "string",
          "name": "imageURL",
          "type": "string"
        },
        {
          "indexed": false,
          "internalType": "string",
          "name": "communityName",
          "type": "string"
        },
        {
          "indexed": false,
          "internalType": "string",
          "name": "description",
          "type": "string"
        },
        {
          "indexed": false,
          "internalType": "string",
          "name": "physicalAddress",
          "type": "string"
        },
        {
          "indexed": false,
          "internalType": "address",
          "name": "walletAddress",
          "type": "address"
        }
      ],
      "name": "CommunityTemplateCreated",
      "type": "event"
    },
    {
      "anonymous": false,
      "inputs": [
        {
          "indexed": true,
          "internalType": "address",
          "name": "from",
          "type": "address"
        },
        {
          "indexed": true,
          "internalType": "address",
          "name": "to",
          "type": "address"
        },
        {
          "indexed": true,
          "internalType": "uint256",
          "name": "tokenId",
          "type": "uint256"
        }
      ],
      "name": "Transfer",
      "type": "event"
    },
    {
      "inputs": [
        {
          "internalType": "address",
          "name": "to",
          "type": "address"
        },
        {
          "internalType": "uint256",
          "name": "tokenId",
          "type": "uint256"
        }
      ],
      "name": "approve",
      "outputs": [],
      "stateMutability": "nonpayable",
      "type": "function"
    },
    {
      "inputs": [
        {
          "internalType": "address",
          "name": "owner",
          "type": "address"
        }
      ],
      "name": "balanceOf",
      "outputs": [
        {
          "internalType": "uint256",
          "name": "",
          "type": "uint256"
        }
      ],
      "stateMutability": "view",
      "type": "function"
    },
    {
      "inputs": [],
      "name": "baseURI",
      "outputs": [
        {
          "internalType": "string",
          "name": "",
          "type": "string"
        }
      ],
      "stateMutability": "view",
      "type": "function"
    },
    {
      "inputs": [
        {
          "internalType": "uint256",
          "name": "",
          "type": "uint256"
        }
      ],
      "name": "communityList",
      "outputs": [
        {
          "internalType": "uint256",
          "name": "id",
          "type": "uint256"
        },
        {
          "internalType": "string",
          "name": "imageURL",
          "type": "string"
        },
        {
          "internalType": "string",
          "name": "communityName",
          "type": "string"
        },
        {
          "internalType": "string",
          "name": "description",
          "type": "string"
        },
        {
          "internalType": "string",
          "name": "physicalAddress",
          "type": "string"
        },
        {
          "internalType": "address",
          "name": "walletAddress",
          "type": "address"
        }
      ],
      "stateMutability": "view",
      "type": "function"
    },
    {
      "inputs": [],
      "name": "count",
      "outputs": [
        {
          "internalType": "uint256",
          "name": "",
          "type": "uint256"
        }
      ],
      "stateMutability": "view",
      "type": "function"
    },
    {
      "inputs": [
        {
          "internalType": "uint256",
          "name": "tokenId",
          "type": "uint256"
        }
      ],
      "name": "getApproved",
      "outputs": [
        {
          "internalType": "address",
          "name": "",
          "type": "address"
        }
      ],
      "stateMutability": "view",
      "type": "function"
    },
    {
      "inputs": [
        {
          "internalType": "address",
          "name": "owner",
          "type": "address"
        },
        {
          "internalType": "address",
          "name": "operator",
          "type": "address"
        }
      ],
      "name": "isApprovedForAll",
      "outputs": [
        {
          "internalType": "bool",
          "name": "",
          "type": "bool"
        }
      ],
      "stateMutability": "view",
      "type": "function"
    },
    {
      "inputs": [],
      "name": "name",
      "outputs": [
        {
          "internalType": "string",
          "name": "",
          "type": "string"
        }
      ],
      "stateMutability": "view",
      "type": "function"
    },
    {
      "inputs": [
        {
          "internalType": "uint256",
          "name": "tokenId",
          "type": "uint256"
        }
      ],
      "name": "ownerOf",
      "outputs": [
        {
          "internalType": "address",
          "name": "",
          "type": "address"
        }
      ],
      "stateMutability": "view",
      "type": "function"
    },
    {
      "inputs": [
        {
          "internalType": "address",
          "name": "from",
          "type": "address"
        },
        {
          "internalType": "address",
          "name": "to",
          "type": "address"
        },
        {
          "internalType": "uint256",
          "name": "tokenId",
          "type": "uint256"
        }
      ],
      "name": "safeTransferFrom",
      "outputs": [],
      "stateMutability": "nonpayable",
      "type": "function"
    },
    {
      "inputs": [
        {
          "internalType": "address",
          "name": "from",
          "type": "address"
        },
        {
          "internalType": "address",
          "name": "to",
          "type": "address"
        },
        {
          "internalType": "uint256",
          "name": "tokenId",
          "type": "uint256"
        },
        {
          "internalType": "bytes",
          "name": "_data",
          "type": "bytes"
        }
      ],
      "name": "safeTransferFrom",
      "outputs": [],
      "stateMutability": "nonpayable",
      "type": "function"
    },
    {
      "inputs": [
        {
          "internalType": "address",
          "name": "operator",
          "type": "address"
        },
        {
          "internalType": "bool",
          "name": "approved",
          "type": "bool"
        }
      ],
      "name": "setApprovalForAll",
      "outputs": [],
      "stateMutability": "nonpayable",
      "type": "function"
    },
    {
      "inputs": [
        {
          "internalType": "bytes4",
          "name": "interfaceId",
          "type": "bytes4"
        }
      ],
      "name": "supportsInterface",
      "outputs": [
        {
          "internalType": "bool",
          "name": "",
          "type": "bool"
        }
      ],
      "stateMutability": "view",
      "type": "function"
    },
    {
      "inputs": [],
      "name": "symbol",
      "outputs": [
        {
          "internalType": "string",
          "name": "",
          "type": "string"
        }
      ],
      "stateMutability": "view",
      "type": "function"
    },
    {
      "inputs": [
        {
          "internalType": "uint256",
          "name": "index",
          "type": "uint256"
        }
      ],
      "name": "tokenByIndex",
      "outputs": [
        {
          "internalType": "uint256",
          "name": "",
          "type": "uint256"
        }
      ],
      "stateMutability": "view",
      "type": "function"
    },
    {
      "inputs": [
        {
          "internalType": "address",
          "name": "owner",
          "type": "address"
        },
        {
          "internalType": "uint256",
          "name": "index",
          "type": "uint256"
        }
      ],
      "name": "tokenOfOwnerByIndex",
      "outputs": [
        {
          "internalType": "uint256",
          "name": "",
          "type": "uint256"
        }
      ],
      "stateMutability": "view",
      "type": "function"
    },
    {
      "inputs": [
        {
          "internalType": "uint256",
          "name": "tokenId",
          "type": "uint256"
        }
      ],
      "name": "tokenURI",
      "outputs": [
        {
          "internalType": "string",
          "name": "",
          "type": "string"
        }
      ],
      "stateMutability": "view",
      "type": "function"
    },
    {
      "inputs": [],
      "name": "totalSupply",
      "outputs": [
        {
          "internalType": "uint256",
          "name": "",
          "type": "uint256"
        }
      ],
      "stateMutability": "view",
      "type": "function"
    },
    {
      "inputs": [
        {
          "internalType": "address",
          "name": "from",
          "type": "address"
        },
        {
          "internalType": "address",
          "name": "to",
          "type": "address"
        },
        {
          "internalType": "uint256",
          "name": "tokenId",
          "type": "uint256"
        }
      ],
      "name": "transferFrom",
      "outputs": [],
      "stateMutability": "nonpayable",
      "type": "function"
    },
    {
      "inputs": [
        {
          "internalType": "string",
          "name": "_imageURL",
          "type": "string"
        },
        {
          "internalType": "string",
          "name": "_communityName",
          "type": "string"
        },
        {
          "internalType": "string",
          "name": "_description",
          "type": "string"
        },
        {
          "internalType": "string",
          "name": "_physicalAddress",
          "type": "string"
        },
        {
          "internalType": "address",
          "name": "_walletAddress",
          "type": "address"
        }
      ],
      "name": "registerCommunity",
      "outputs": [],
      "stateMutability": "nonpayable",
      "type": "function"
    }
  ],
  "bytecode": "0x60806040526000600b553480156200001657600080fd5b506040518060400160405280601281526020017f436f6d6d756e69747920436f6e747261637400000000000000000000000000008152506040518060400160405280600281526020017f43470000000000000000000000000000000000000000000000000000000000008152506200009b6301ffc9a760e01b6200011d60201b60201c565b8160069080519060200190620000b392919062000226565b508060079080519060200190620000cc92919062000226565b50620000e56380ac58cd60e01b6200011d60201b60201c565b620000fd635b5e139f60e01b6200011d60201b60201c565b6200011563780e9d6360e01b6200011d60201b60201c565b5050620002cc565b63ffffffff60e01b817bffffffffffffffffffffffffffffffffffffffffffffffffffffffff19161415620001ba576040517f08c379a000000000000000000000000000000000000000000000000000000000815260040180806020018281038252601c8152602001807f4552433136353a20696e76616c696420696e746572666163652069640000000081525060200191505060405180910390fd5b6001600080837bffffffffffffffffffffffffffffffffffffffffffffffffffffffff19167bffffffffffffffffffffffffffffffffffffffffffffffffffffffff1916815260200190815260200160002060006101000a81548160ff02191690831515021790555050565b828054600181600116156101000203166002900490600052602060002090601f016020900481019282601f106200026957805160ff19168380011785556200029a565b828001600101855582156200029a579182015b82811115620002995782518255916020019190600101906200027c565b5b509050620002a99190620002ad565b5090565b5b80821115620002c8576000816000905550600101620002ae565b5090565b6132b880620002dc6000396000f3fe608060405234801561001057600080fd5b506004361061012c5760003560e01c80634f6ccce7116100ad578063a22cb46511610071578063a22cb465146108cf578063a681b7ba1461091f578063b88d4fde14610b2e578063c87b56dd14610c33578063e985e9c514610cda5761012c565b80634f6ccce7146106d75780636352211e146107195780636c0360eb1461077157806370a08231146107f457806395d89b411461084c5761012c565b806318160ddd116100f457806318160ddd146102db57806323b872dd146102f95780632f745c59146103675780633097f06e146103c957806342842e0e146106695761012c565b806301ffc9a71461013157806306661abd1461019457806306fdde03146101b2578063081812fc14610235578063095ea7b31461028d575b600080fd5b61017c6004803603602081101561014757600080fd5b8101908080357bffffffffffffffffffffffffffffffffffffffffffffffffffffffff19169060200190929190505050610d54565b60405180821515815260200191505060405180910390f35b61019c610dbb565b6040518082815260200191505060405180910390f35b6101ba610dc1565b6040518080602001828103825283818151815260200191508051906020019080838360005b838110156101fa5780820151818401526020810190506101df565b50505050905090810190601f1680156102275780820380516001836020036101000a031916815260200191505b509250505060405180910390f35b6102616004803603602081101561024b57600080fd5b8101908080359060200190929190505050610e63565b604051808273ffffffffffffffffffffffffffffffffffffffff16815260200191505060405180910390f35b6102d9600480360360408110156102a357600080fd5b81019080803573ffffffffffffffffffffffffffffffffffffffff16906020019092919080359060200190929190505050610efe565b005b6102e3611042565b6040518082815260200191505060405180910390f35b6103656004803603606081101561030f57600080fd5b81019080803573ffffffffffffffffffffffffffffffffffffffff169060200190929190803573ffffffffffffffffffffffffffffffffffffffff16906020019092919080359060200190929190505050611053565b005b6103b36004803603604081101561037d57600080fd5b81019080803573ffffffffffffffffffffffffffffffffffffffff169060200190929190803590602001909291905050506110c9565b6040518082815260200191505060405180910390f35b610667600480360360a08110156103df57600080fd5b81019080803590602001906401000000008111156103fc57600080fd5b82018360208201111561040e57600080fd5b8035906020019184600183028401116401000000008311171561043057600080fd5b91908080601f016020809104026020016040519081016040528093929190818152602001838380828437600081840152601f19601f8201169050808301925050505050505091929192908035906020019064010000000081111561049357600080fd5b8201836020820111156104a557600080fd5b803590602001918460018302840111640100000000831117156104c757600080fd5b91908080601f016020809104026020016040519081016040528093929190818152602001838380828437600081840152601f19601f8201169050808301925050505050505091929192908035906020019064010000000081111561052a57600080fd5b82018360208201111561053c57600080fd5b8035906020019184600183028401116401000000008311171561055e57600080fd5b91908080601f016020809104026020016040519081016040528093929190818152602001838380828437600081840152601f19601f820116905080830192505050505050509192919290803590602001906401000000008111156105c157600080fd5b8201836020820111156105d357600080fd5b803590602001918460018302840111640100000000831117156105f557600080fd5b91908080601f016020809104026020016040519081016040528093929190818152602001838380828437600081840152601f19601f820116905080830192505050505050509192919290803573ffffffffffffffffffffffffffffffffffffffff169060200190929190505050611124565b005b6106d56004803603606081101561067f57600080fd5b81019080803573ffffffffffffffffffffffffffffffffffffffff169060200190929190803573ffffffffffffffffffffffffffffffffffffffff1690602001909291908035906020019092919050505061146a565b005b610703600480360360208110156106ed57600080fd5b810190808035906020019092919050505061148a565b6040518082815260200191505060405180910390f35b6107456004803603602081101561072f57600080fd5b81019080803590602001909291905050506114ad565b604051808273ffffffffffffffffffffffffffffffffffffffff16815260200191505060405180910390f35b6107796114e4565b6040518080602001828103825283818151815260200191508051906020019080838360005b838110156107b957808201518184015260208101905061079e565b50505050905090810190601f1680156107e65780820380516001836020036101000a031916815260200191505b509250505060405180910390f35b6108366004803603602081101561080a57600080fd5b81019080803573ffffffffffffffffffffffffffffffffffffffff169060200190929190505050611586565b6040518082815260200191505060405180910390f35b61085461165b565b6040518080602001828103825283818151815260200191508051906020019080838360005b83811015610894578082015181840152602081019050610879565b50505050905090810190601f1680156108c15780820380516001836020036101000a031916815260200191505b509250505060405180910390f35b61091d600480360360408110156108e557600080fd5b81019080803573ffffffffffffffffffffffffffffffffffffffff1690602001909291908035151590602001909291905050506116fd565b005b61094b6004803603602081101561093557600080fd5b81019080803590602001909291905050506118b3565b60405180878152602001806020018060200180602001806020018673ffffffffffffffffffffffffffffffffffffffff16815260200185810385528a818151815260200191508051906020019080838360005b838110156109b957808201518184015260208101905061099e565b50505050905090810190601f1680156109e65780820380516001836020036101000a031916815260200191505b50858103845289818151815260200191508051906020019080838360005b83811015610a1f578082015181840152602081019050610a04565b50505050905090810190601f168015610a4c5780820380516001836020036101000a031916815260200191505b50858103835288818151815260200191508051906020019080838360005b83811015610a85578082015181840152602081019050610a6a565b50505050905090810190601f168015610ab25780820380516001836020036101000a031916815260200191505b50858103825287818151815260200191508051906020019080838360005b83811015610aeb578082015181840152602081019050610ad0565b50505050905090810190601f168015610b185780820380516001836020036101000a031916815260200191505b509a505050505050505050505060405180910390f35b610c3160048036036080811015610b4457600080fd5b81019080803573ffffffffffffffffffffffffffffffffffffffff169060200190929190803573ffffffffffffffffffffffffffffffffffffffff1690602001909291908035906020019092919080359060200190640100000000811115610bab57600080fd5b820183602082011115610bbd57600080fd5b80359060200191846001830284011164010000000083111715610bdf57600080fd5b91908080601f016020809104026020016040519081016040528093929190818152602001838380828437600081840152601f19601f820116905080830192505050505050509192919290505050611b6f565b005b610c5f60048036036020811015610c4957600080fd5b8101908080359060200190929190505050611be7565b6040518080602001828103825283818151815260200191508051906020019080838360005b83811015610c9f578082015181840152602081019050610c84565b50505050905090810190601f168015610ccc5780820380516001836020036101000a031916815260200191505b509250505060405180910390f35b610d3c60048036036040811015610cf057600080fd5b81019080803573ffffffffffffffffffffffffffffffffffffffff169060200190929190803573ffffffffffffffffffffffffffffffffffffffff169060200190929190505050611eb8565b60405180821515815260200191505060405180910390f35b6000806000837bffffffffffffffffffffffffffffffffffffffffffffffffffffffff19167bffffffffffffffffffffffffffffffffffffffffffffffffffffffff1916815260200190815260200160002060009054906101000a900460ff169050919050565b600b5481565b606060068054600181600116156101000203166002900480601f016020809104026020016040519081016040528092919081815260200182805460018160011615610100020316600290048015610e595780601f10610e2e57610100808354040283529160200191610e59565b820191906000526020600020905b815481529060010190602001808311610e3c57829003601f168201915b5050505050905090565b6000610e6e82611f4c565b610ec3576040517f08c379a000000000000000000000000000000000000000000000000000000000815260040180806020018281038252602c8152602001806131ad602c913960400191505060405180910390fd5b6004600083815260200190815260200160002060009054906101000a900473ffffffffffffffffffffffffffffffffffffffff169050919050565b6000610f09826114ad565b90508073ffffffffffffffffffffffffffffffffffffffff168373ffffffffffffffffffffffffffffffffffffffff161415610f90576040517f08c379a00000000000000000000000000000000000000000000000000000000081526004018080602001828103825260218152602001806132316021913960400191505060405180910390fd5b8073ffffffffffffffffffffffffffffffffffffffff16610faf611f69565b73ffffffffffffffffffffffffffffffffffffffff161480610fde5750610fdd81610fd8611f69565b611eb8565b5b611033576040517f08c379a00000000000000000000000000000000000000000000000000000000081526004018080602001828103825260388152602001806131006038913960400191505060405180910390fd5b61103d8383611f71565b505050565b600061104e600261202a565b905090565b61106461105e611f69565b8261203f565b6110b9576040517f08c379a00000000000000000000000000000000000000000000000000000000081526004018080602001828103825260318152602001806132526031913960400191505060405180910390fd5b6110c4838383612133565b505050565b600061111c82600160008673ffffffffffffffffffffffffffffffffffffffff1673ffffffffffffffffffffffffffffffffffffffff16815260200190815260200160002061237690919063ffffffff16565b905092915050565b600b600081548092919060010191905055506040518060c00160405280600b5481526020018681526020018581526020018481526020018381526020018273ffffffffffffffffffffffffffffffffffffffff16815250600a6000600b5481526020019081526020016000206000820151816000015560208201518160010190805190602001906111b6929190612f98565b5060408201518160020190805190602001906111d3929190612f98565b5060608201518160030190805190602001906111f0929190612f98565b50608082015181600401908051906020019061120d929190612f98565b5060a08201518160050160006101000a81548173ffffffffffffffffffffffffffffffffffffffff021916908373ffffffffffffffffffffffffffffffffffffffff1602179055509050507f68adc301d5665a817177dbd923ee13fb167d688e19e6a6bdb26ada34de700876600b54868686868660405180878152602001806020018060200180602001806020018673ffffffffffffffffffffffffffffffffffffffff16815260200185810385528a818151815260200191508051906020019080838360005b838110156112ef5780820151818401526020810190506112d4565b50505050905090810190601f16801561131c5780820380516001836020036101000a031916815260200191505b50858103845289818151815260200191508051906020019080838360005b8381101561135557808201518184015260208101905061133a565b50505050905090810190601f1680156113825780820380516001836020036101000a031916815260200191505b50858103835288818151815260200191508051906020019080838360005b838110156113bb5780820151818401526020810190506113a0565b50505050905090810190601f1680156113e85780820380516001836020036101000a031916815260200191505b50858103825287818151815260200191508051906020019080838360005b83811015611421578082015181840152602081019050611406565b50505050905090810190601f16801561144e5780820380516001836020036101000a031916815260200191505b509a505050505050505050505060405180910390a15050505050565b61148583838360405180602001604052806000815250611b6f565b505050565b6000806114a183600261239090919063ffffffff16565b50905080915050919050565b60006114dd826040518060600160405280602981526020016131626029913960026123bc9092919063ffffffff16565b9050919050565b606060098054600181600116156101000203166002900480601f01602080910402602001604051908101604052809291908181526020018280546001816001161561010002031660029004801561157c5780601f106115515761010080835404028352916020019161157c565b820191906000526020600020905b81548152906001019060200180831161155f57829003601f168201915b5050505050905090565b60008073ffffffffffffffffffffffffffffffffffffffff168273ffffffffffffffffffffffffffffffffffffffff16141561160d576040517f08c379a000000000000000000000000000000000000000000000000000000000815260040180806020018281038252602a815260200180613138602a913960400191505060405180910390fd5b611654600160008473ffffffffffffffffffffffffffffffffffffffff1673ffffffffffffffffffffffffffffffffffffffff1681526020019081526020016000206123db565b9050919050565b606060078054600181600116156101000203166002900480601f0160208091040260200160405190810160405280929190818152602001828054600181600116156101000203166002900480156116f35780601f106116c8576101008083540402835291602001916116f3565b820191906000526020600020905b8154815290600101906020018083116116d657829003601f168201915b5050505050905090565b611705611f69565b73ffffffffffffffffffffffffffffffffffffffff168273ffffffffffffffffffffffffffffffffffffffff1614156117a6576040517f08c379a00000000000000000000000000000000000000000000000000000000081526004018080602001828103825260198152602001807f4552433732313a20617070726f766520746f2063616c6c65720000000000000081525060200191505060405180910390fd5b80600560006117b3611f69565b73ffffffffffffffffffffffffffffffffffffffff1673ffffffffffffffffffffffffffffffffffffffff16815260200190815260200160002060008473ffffffffffffffffffffffffffffffffffffffff1673ffffffffffffffffffffffffffffffffffffffff16815260200190815260200160002060006101000a81548160ff0219169083151502179055508173ffffffffffffffffffffffffffffffffffffffff16611860611f69565b73ffffffffffffffffffffffffffffffffffffffff167f17307eab39ab6107e8899845ad3d59bd9653f200f220920489ca2b5937696c318360405180821515815260200191505060405180910390a35050565b600a602052806000526040600020600091509050806000015490806001018054600181600116156101000203166002900480601f0160208091040260200160405190810160405280929190818152602001828054600181600116156101000203166002900480156119655780601f1061193a57610100808354040283529160200191611965565b820191906000526020600020905b81548152906001019060200180831161194857829003601f168201915b505050505090806002018054600181600116156101000203166002900480601f016020809104026020016040519081016040528092919081815260200182805460018160011615610100020316600290048015611a035780601f106119d857610100808354040283529160200191611a03565b820191906000526020600020905b8154815290600101906020018083116119e657829003601f168201915b505050505090806003018054600181600116156101000203166002900480601f016020809104026020016040519081016040528092919081815260200182805460018160011615610100020316600290048015611aa15780601f10611a7657610100808354040283529160200191611aa1565b820191906000526020600020905b815481529060010190602001808311611a8457829003601f168201915b505050505090806004018054600181600116156101000203166002900480601f016020809104026020016040519081016040528092919081815260200182805460018160011615610100020316600290048015611b3f5780601f10611b1457610100808354040283529160200191611b3f565b820191906000526020600020905b815481529060010190602001808311611b2257829003601f168201915b5050505050908060050160009054906101000a900473ffffffffffffffffffffffffffffffffffffffff16905086565b611b80611b7a611f69565b8361203f565b611bd5576040517f08c379a00000000000000000000000000000000000000000000000000000000081526004018080602001828103825260318152602001806132526031913960400191505060405180910390fd5b611be1848484846123f0565b50505050565b6060611bf282611f4c565b611c47576040517f08c379a000000000000000000000000000000000000000000000000000000000815260040180806020018281038252602f815260200180613202602f913960400191505060405180910390fd5b6060600860008481526020019081526020016000208054600181600116156101000203166002900480601f016020809104026020016040519081016040528092919081815260200182805460018160011615610100020316600290048015611cf05780601f10611cc557610100808354040283529160200191611cf0565b820191906000526020600020905b815481529060010190602001808311611cd357829003601f168201915b505050505090506060611d016114e4565b9050600081511415611d17578192505050611eb3565b600082511115611de85780826040516020018083805190602001908083835b60208310611d595780518252602082019150602081019050602083039250611d36565b6001836020036101000a03801982511681845116808217855250505050505090500182805190602001908083835b60208310611daa5780518252602082019150602081019050602083039250611d87565b6001836020036101000a0380198251168184511680821785525050505050509050019250505060405160208183030381529060405292505050611eb3565b80611df285612462565b6040516020018083805190602001908083835b60208310611e285780518252602082019150602081019050602083039250611e05565b6001836020036101000a03801982511681845116808217855250505050505090500182805190602001908083835b60208310611e795780518252602082019150602081019050602083039250611e56565b6001836020036101000a03801982511681845116808217855250505050505090500192505050604051602081830303815290604052925050505b919050565b6000600560008473ffffffffffffffffffffffffffffffffffffffff1673ffffffffffffffffffffffffffffffffffffffff16815260200190815260200160002060008373ffffffffffffffffffffffffffffffffffffffff1673ffffffffffffffffffffffffffffffffffffffff16815260200190815260200160002060009054906101000a900460ff16905092915050565b6000611f628260026125a990919063ffffffff16565b9050919050565b600033905090565b816004600083815260200190815260200160002060006101000a81548173ffffffffffffffffffffffffffffffffffffffff021916908373ffffffffffffffffffffffffffffffffffffffff160217905550808273ffffffffffffffffffffffffffffffffffffffff16611fe4836114ad565b73ffffffffffffffffffffffffffffffffffffffff167f8c5be1e5ebec7d5bd14f71427d1e84f3dd0314c0f7b2291e5b200ac8c7c3b92560405160405180910390a45050565b6000612038826000016125c3565b9050919050565b600061204a82611f4c565b61209f576040517f08c379a000000000000000000000000000000000000000000000000000000000815260040180806020018281038252602c8152602001806130d4602c913960400191505060405180910390fd5b60006120aa836114ad565b90508073ffffffffffffffffffffffffffffffffffffffff168473ffffffffffffffffffffffffffffffffffffffff16148061211957508373ffffffffffffffffffffffffffffffffffffffff1661210184610e63565b73ffffffffffffffffffffffffffffffffffffffff16145b8061212a57506121298185611eb8565b5b91505092915050565b8273ffffffffffffffffffffffffffffffffffffffff16612153826114ad565b73ffffffffffffffffffffffffffffffffffffffff16146121bf576040517f08c379a00000000000000000000000000000000000000000000000000000000081526004018080602001828103825260298152602001806131d96029913960400191505060405180910390fd5b600073ffffffffffffffffffffffffffffffffffffffff168273ffffffffffffffffffffffffffffffffffffffff161415612245576040517f08c379a000000000000000000000000000000000000000000000000000000000815260040180806020018281038252602481526020018061308a6024913960400191505060405180910390fd5b6122508383836125d4565b61225b600082611f71565b6122ac81600160008673ffffffffffffffffffffffffffffffffffffffff1673ffffffffffffffffffffffffffffffffffffffff1681526020019081526020016000206125d990919063ffffffff16565b506122fe81600160008573ffffffffffffffffffffffffffffffffffffffff1673ffffffffffffffffffffffffffffffffffffffff1681526020019081526020016000206125f390919063ffffffff16565b506123158183600261260d9092919063ffffffff16565b50808273ffffffffffffffffffffffffffffffffffffffff168473ffffffffffffffffffffffffffffffffffffffff167fddf252ad1be2c89b69c2b068fc378daa952ba7f163c4a11628f55a4df523b3ef60405160405180910390a4505050565b60006123858360000183612642565b60001c905092915050565b6000806000806123a386600001866126c5565b915091508160001c8160001c9350935050509250929050565b60006123cf846000018460001b8461275e565b60001c90509392505050565b60006123e982600001612854565b9050919050565b6123fb848484612133565b61240784848484612865565b61245c576040517f08c379a00000000000000000000000000000000000000000000000000000000081526004018080602001828103825260328152602001806130586032913960400191505060405180910390fd5b50505050565b606060008214156124aa576040518060400160405280600181526020017f300000000000000000000000000000000000000000000000000000000000000081525090506125a4565b600082905060005b600082146124d4578080600101915050600a82816124cc57fe5b0491506124b2565b60608167ffffffffffffffff811180156124ed57600080fd5b506040519080825280601f01601f1916602001820160405280156125205781602001600182028036833780820191505090505b50905060006001830390508593505b6000841461259c57600a848161254157fe5b0660300160f81b8282806001900393508151811061255b57fe5b60200101907effffffffffffffffffffffffffffffffffffffffffffffffffffffffffffff1916908160001a905350600a848161259457fe5b04935061252f565b819450505050505b919050565b60006125bb836000018360001b612a7e565b905092915050565b600081600001805490509050919050565b505050565b60006125eb836000018360001b612aa1565b905092915050565b6000612605836000018360001b612b89565b905092915050565b6000612639846000018460001b8473ffffffffffffffffffffffffffffffffffffffff1660001b612bf9565b90509392505050565b6000818360000180549050116126a3576040517f08c379a00000000000000000000000000000000000000000000000000000000081526004018080602001828103825260228152602001806130366022913960400191505060405180910390fd5b8260000182815481106126b257fe5b9060005260206000200154905092915050565b60008082846000018054905011612727576040517f08c379a000000000000000000000000000000000000000000000000000000000815260040180806020018281038252602281526020018061318b6022913960400191505060405180910390fd5b600084600001848154811061273857fe5b906000526020600020906002020190508060000154816001015492509250509250929050565b60008084600101600085815260200190815260200160002054905060008114158390612825576040517f08c379a00000000000000000000000000000000000000000000000000000000081526004018080602001828103825283818151815260200191508051906020019080838360005b838110156127ea5780820151818401526020810190506127cf565b50505050905090810190601f1680156128175780820380516001836020036101000a031916815260200191505b509250505060405180910390fd5b5084600001600182038154811061283857fe5b9060005260206000209060020201600101549150509392505050565b600081600001805490509050919050565b60006128868473ffffffffffffffffffffffffffffffffffffffff16612cd5565b6128935760019050612a76565b60606129fd63150b7a0260e01b6128a8611f69565b888787604051602401808573ffffffffffffffffffffffffffffffffffffffff1681526020018473ffffffffffffffffffffffffffffffffffffffff16815260200183815260200180602001828103825283818151815260200191508051906020019080838360005b8381101561292c578082015181840152602081019050612911565b50505050905090810190601f1680156129595780820380516001836020036101000a031916815260200191505b5095505050505050604051602081830303815290604052907bffffffffffffffffffffffffffffffffffffffffffffffffffffffff19166020820180517bffffffffffffffffffffffffffffffffffffffffffffffffffffffff8381831617835250505050604051806060016040528060328152602001613058603291398773ffffffffffffffffffffffffffffffffffffffff16612ce89092919063ffffffff16565b90506000818060200190516020811015612a1657600080fd5b8101908080519060200190929190505050905063150b7a0260e01b7bffffffffffffffffffffffffffffffffffffffffffffffffffffffff1916817bffffffffffffffffffffffffffffffffffffffffffffffffffffffff191614925050505b949350505050565b600080836001016000848152602001908152602001600020541415905092915050565b60008083600101600084815260200190815260200160002054905060008114612b7d5760006001820390506000600186600001805490500390506000866000018281548110612aec57fe5b9060005260206000200154905080876000018481548110612b0957fe5b9060005260206000200181905550600183018760010160008381526020019081526020016000208190555086600001805480612b4157fe5b60019003818190600052602060002001600090559055866001016000878152602001908152602001600020600090556001945050505050612b83565b60009150505b92915050565b6000612b958383612d00565b612bee578260000182908060018154018082558091505060019003906000526020600020016000909190919091505582600001805490508360010160008481526020019081526020016000208190555060019050612bf3565b600090505b92915050565b6000808460010160008581526020019081526020016000205490506000811415612ca057846000016040518060400160405280868152602001858152509080600181540180825580915050600190039060005260206000209060020201600090919091909150600082015181600001556020820151816001015550508460000180549050856001016000868152602001908152602001600020819055506001915050612cce565b82856000016001830381548110612cb357fe5b90600052602060002090600202016001018190555060009150505b9392505050565b600080823b905060008111915050919050565b6060612cf78484600085612d23565b90509392505050565b600080836001016000848152602001908152602001600020541415905092915050565b606082471015612d7e576040517f08c379a00000000000000000000000000000000000000000000000000000000081526004018080602001828103825260268152602001806130ae6026913960400191505060405180910390fd5b612d8785612cd5565b612df9576040517f08c379a000000000000000000000000000000000000000000000000000000000815260040180806020018281038252601d8152602001807f416464726573733a2063616c6c20746f206e6f6e2d636f6e747261637400000081525060200191505060405180910390fd5b600060608673ffffffffffffffffffffffffffffffffffffffff1685876040518082805190602001908083835b60208310612e495780518252602082019150602081019050602083039250612e26565b6001836020036101000a03801982511681845116808217855250505050505090500191505060006040518083038185875af1925050503d8060008114612eab576040519150601f19603f3d011682016040523d82523d6000602084013e612eb0565b606091505b5091509150612ec0828286612ecc565b92505050949350505050565b60608315612edc57829050612f91565b600083511115612eef5782518084602001fd5b816040517f08c379a00000000000000000000000000000000000000000000000000000000081526004018080602001828103825283818151815260200191508051906020019080838360005b83811015612f56578082015181840152602081019050612f3b565b50505050905090810190601f168015612f835780820380516001836020036101000a031916815260200191505b509250505060405180910390fd5b9392505050565b828054600181600116156101000203166002900490600052602060002090601f016020900481019282601f10612fd957805160ff1916838001178555613007565b82800160010185558215613007579182015b82811115613006578251825591602001919060010190612feb565b5b5090506130149190613018565b5090565b5b80821115613031576000816000905550600101613019565b509056fe456e756d657261626c655365743a20696e646578206f7574206f6620626f756e64734552433732313a207472616e7366657220746f206e6f6e20455243373231526563656976657220696d706c656d656e7465724552433732313a207472616e7366657220746f20746865207a65726f2061646472657373416464726573733a20696e73756666696369656e742062616c616e636520666f722063616c6c4552433732313a206f70657261746f7220717565727920666f72206e6f6e6578697374656e7420746f6b656e4552433732313a20617070726f76652063616c6c6572206973206e6f74206f776e6572206e6f7220617070726f76656420666f7220616c6c4552433732313a2062616c616e636520717565727920666f7220746865207a65726f20616464726573734552433732313a206f776e657220717565727920666f72206e6f6e6578697374656e7420746f6b656e456e756d657261626c654d61703a20696e646578206f7574206f6620626f756e64734552433732313a20617070726f76656420717565727920666f72206e6f6e6578697374656e7420746f6b656e4552433732313a207472616e73666572206f6620746f6b656e2074686174206973206e6f74206f776e4552433732314d657461646174613a2055524920717565727920666f72206e6f6e6578697374656e7420746f6b656e4552433732313a20617070726f76616c20746f2063757272656e74206f776e65724552433732313a207472616e736665722063616c6c6572206973206e6f74206f776e6572206e6f7220617070726f766564a26469706673582212204a0cd86a2a14180678945dc81cc3eedff9db055f0d1f0f77f93c00500d6a890764736f6c634300060c0033",
  "immutableReferences": {},
  "source": "// SPDX-License-Identifier: MIT\npragma solidity 0.6.12;\nimport \"@openzeppelin/contracts/token/ERC721/ERC721.sol\";\n\n\ncontract Community is ERC721 {\n\n// To register communities\n  mapping(uint => CommunityTemplate) public communityList;\n  uint public count =0;\n\n  struct CommunityTemplate {\n    uint id;\n    string imageURL;\n    string communityName;\n    string description;\n    string physicalAddress;\n    address walletAddress;\n  }\n\n  event CommunityTemplateCreated (\n    uint id,\n    string imageURL,\n    string communityName,\n    string description,\n    string physicalAddress,\n    address walletAddress\n  );\n\n  constructor() ERC721(\"Community Contract\", \"CG\")  public {}\n\n// upload img to textile n gives back a cid then save it to the contract => I have the cid img url\n// store whole data first try the image, json obj for data\n  function registerCommunity(string memory _imageURL, string memory _communityName, string memory _description, string memory _physicalAddress, address  _walletAddress) external {\n    count++;\n    communityList[count] = CommunityTemplate(count, _imageURL, _communityName, _description, _physicalAddress, _walletAddress);\n    emit CommunityTemplateCreated(count, _imageURL, _communityName, _description, _physicalAddress, _walletAddress);\n  }\n\n\n  // event ComunityNFTCreated (\n  //   uint id;\n  //   string cid;\n  //   string communityName;\n  //   string description;\n  //   string address;\n  //   uint walletAddress;\n  //   address payable from;\n  // );\n\n  // event ComunityNFTCreated (\n  //   uint id;\n  //   string cid;\n  //   string communityName;\n  //   string description;\n  //   string address;\n  //   uint walletAddress;\n  //   address payable from;\n  // );\n\n  // function mintPetNFT(string memory _tokenURI) external {\n  //   uint _tokenId = totalSupply().add(1);\n  //   _safeMint(msg.sender, _tokenId);\n  //   _setTokenURI(_tokenId, _tokenURI);\n  //   emit PetNFTCreated(_tokenId, _tokenURI, now, msg.sender);\n  // }\n}\n",
  "sourcePath": "/Users/mac/Desktop/birthday-card-NFTs/contracts/Community.sol",
  "compiler": {
    "name": "solc",
    "version": "0.6.12+commit.27d51765.Emscripten.clang"
  },
  "schemaVersion": "3.4.4",
  "updatedAt": "2022-01-16T11:15:11.951Z",
  "devdoc": {
    "kind": "dev",
    "methods": {
      "approve(address,uint256)": {
        "details": "See {IERC721-approve}."
      },
      "balanceOf(address)": {
        "details": "See {IERC721-balanceOf}."
      },
      "baseURI()": {
        "details": "Returns the base URI set via {_setBaseURI}. This will be automatically added as a prefix in {tokenURI} to each token's URI, or to the token ID if no specific URI is set for that token ID."
      },
      "getApproved(uint256)": {
        "details": "See {IERC721-getApproved}."
      },
      "isApprovedForAll(address,address)": {
        "details": "See {IERC721-isApprovedForAll}."
      },
      "name()": {
        "details": "See {IERC721Metadata-name}."
      },
      "ownerOf(uint256)": {
        "details": "See {IERC721-ownerOf}."
      },
      "safeTransferFrom(address,address,uint256)": {
        "details": "See {IERC721-safeTransferFrom}."
      },
      "safeTransferFrom(address,address,uint256,bytes)": {
        "details": "See {IERC721-safeTransferFrom}."
      },
      "setApprovalForAll(address,bool)": {
        "details": "See {IERC721-setApprovalForAll}."
      },
      "supportsInterface(bytes4)": {
        "details": "See {IERC165-supportsInterface}. Time complexity O(1), guaranteed to always use less than 30 000 gas."
      },
      "symbol()": {
        "details": "See {IERC721Metadata-symbol}."
      },
      "tokenByIndex(uint256)": {
        "details": "See {IERC721Enumerable-tokenByIndex}."
      },
      "tokenOfOwnerByIndex(address,uint256)": {
        "details": "See {IERC721Enumerable-tokenOfOwnerByIndex}."
      },
      "tokenURI(uint256)": {
        "details": "See {IERC721Metadata-tokenURI}."
      },
      "totalSupply()": {
        "details": "See {IERC721Enumerable-totalSupply}."
      },
      "transferFrom(address,address,uint256)": {
        "details": "See {IERC721-transferFrom}."
      }
    },
    "version": 1
  },
  "userdoc": {
    "kind": "user",
    "methods": {},
    "version": 1
  }
}